S0640000433A5C55736572735C6A796F6E617468616E373034315C4465736B746F705C4769744875625C456C657661746F722D4D414A694B5C41786D616E5C41786D616E2043414E206578616D706C6520636F64655C62696E5C50726F6A6563742E61627309
S123C000FEC033FDC031270E35ED31EC3169700434FB310326F2FEC035EC31270BED3118C8
S123C0200A30700434F920F13DCF090007D206C0560000C037C173000000003BCC01905BE8
S123C040465A4D4C4001C60C87ED8013D3445C504F4E01FC3A3D1B966989CC44416B805284
S123C0606B816A826A83426A84426A85426A86426A87698816C0BB1F014010FBCC01C37B39
S123C08001447A014510EFC7873B86203B37C608371A86B75416C0EE1B866B89C6FA8707A0
S123C0A09AC6FA070DC6FA0709C6555B3F585B3F20EF870786C6FA8706C03BC6017B0140A9
S123C0C01F014101FBCC07C07B01417A0142C6237B0143C6107B014B587B01507901547942
S123C0E001517A01557901401E014101FB3D6CADF601462604C601204BF601467B014AF61C
S123C100014A6B82EC897C0172EC877C0170C72016873BC30174B746EC80E382B745E60078
S123C1206B40E681521B82E18525E6E6857B017CE6867B017DE6827B0146F60146E482E113
S123C1408226F7C71B833D1B96F6016CC40F6B816980201287B746C301641A82B7C519EEE1
S118C160E6006B406280E680E18125E81C0144011B8A0B00006C
S105FFB2C14741
S105FFFEC02914
S9030000FC
